{
  "address": "0xe69ef8a0bE48818614b7Da50C3Acb3f04E5fe9d8",
  "abi": [
    {
      "inputs": [
        {
          "internalType": "address",
          "name": "pricefeed_address",
          "type": "address"
        }
      ],
      "stateMutability": "nonpayable",
      "type": "constructor"
    },
    {
      "inputs": [],
      "name": "FundMe_InsufficientFund",
      "type": "error"
    },
    {
      "inputs": [],
      "name": "FundMe_NotOwner",
      "type": "error"
    },
    {
      "stateMutability": "payable",
      "type": "fallback"
    },
    {
      "inputs": [],
      "name": "MIN_USD",
      "outputs": [
        {
          "internalType": "uint256",
          "name": "",
          "type": "uint256"
        }
      ],
      "stateMutability": "view",
      "type": "function"
    },
    {
      "inputs": [],
      "name": "fund_deposit",
      "outputs": [],
      "stateMutability": "payable",
      "type": "function"
    },
    {
      "inputs": [],
      "name": "fund_withdraw",
      "outputs": [],
      "stateMutability": "nonpayable",
      "type": "function"
    },
    {
      "inputs": [
        {
          "internalType": "address",
          "name": "",
          "type": "address"
        }
      ],
      "name": "funded_amount",
      "outputs": [
        {
          "internalType": "uint256",
          "name": "",
          "type": "uint256"
        }
      ],
      "stateMutability": "view",
      "type": "function"
    },
    {
      "inputs": [
        {
          "internalType": "uint256",
          "name": "",
          "type": "uint256"
        }
      ],
      "name": "funders",
      "outputs": [
        {
          "internalType": "address",
          "name": "",
          "type": "address"
        }
      ],
      "stateMutability": "view",
      "type": "function"
    },
    {
      "inputs": [],
      "name": "owner_of_this_contract",
      "outputs": [
        {
          "internalType": "address",
          "name": "",
          "type": "address"
        }
      ],
      "stateMutability": "view",
      "type": "function"
    },
    {
      "inputs": [],
      "name": "pricefeed",
      "outputs": [
        {
          "internalType": "contract AggregatorV3Interface",
          "name": "",
          "type": "address"
        }
      ],
      "stateMutability": "view",
      "type": "function"
    },
    {
      "stateMutability": "payable",
      "type": "receive"
    }
  ],
  "transactionHash": "0x2d672e86f57c98ba5fe8623104a7c84800c7a097f1fb9a359a6f7b605f045700",
  "args": [
    "0x0715A7794a1dc8e42615F059dD6e406A6594651A"
  ],
  "numDeployments": 4,
  "solcInputHash": "01bb789dfe518b5a3584ab797bf2f91f",
  "bytecode": "0x608060405234801561001057600080fd5b50604051610e9e380380610e9e833981810160405281019061003291906100ce565b336000806101000a81548173ffffffffffffffffffffffffffffffffffffffff021916908373ffffffffffffffffffffffffffffffffffffffff16021790555080600360006101000a81548173ffffffffffffffffffffffffffffffffffffffff021916908373ffffffffffffffffffffffffffffffffffffffff16021790555050610140565b6000815190506100c881610129565b92915050565b6000602082840312156100e057600080fd5b60006100ee848285016100b9565b91505092915050565b600061010282610109565b9050919050565b600073ffffffffffffffffffffffffffffffffffffffff82169050919050565b610132816100f7565b811461013d57600080fd5b50565b610d4f8061014f6000396000f3fe6080604052600436106100745760003560e01c8063590f21131161004e578063590f2113146100ff578063ac5b4f671461012a578063d92ffcbe14610155578063dc0d3dff1461016c57610083565b8063213dbea21461008d57806340a0b629146100b8578063436cd227146100f557610083565b36610083576100816101a9565b005b61008b6101a9565b005b34801561009957600080fd5b506100a26102ce565b6040516100af9190610991565b60405180910390f35b3480156100c457600080fd5b506100df60048036038101906100da91906107ea565b6102db565b6040516100ec9190610991565b60405180910390f35b6100fd6101a9565b005b34801561010b57600080fd5b506101146102f3565b6040516101219190610956565b60405180910390f35b34801561013657600080fd5b5061013f610319565b60405161014c919061093b565b60405180910390f35b34801561016157600080fd5b5061016a61033d565b005b34801561017857600080fd5b50610193600480360381019061018e9190610813565b6105ca565b6040516101a0919061093b565b60405180910390f35b6802b5e3af16b18800006101e8600360009054906101000a900473ffffffffffffffffffffffffffffffffffffffff163461060990919063ffffffff16565b1061021f576040517fdcc5251800000000000000000000000000000000000000000000000000000000815260040160405180910390fd5b60003390506001819080600181540180825580915050600190039060005260206000200160009091909190916101000a81548173ffffffffffffffffffffffffffffffffffffffff021916908373ffffffffffffffffffffffffffffffffffffffff16021790555034600260008373ffffffffffffffffffffffffffffffffffffffff1673ffffffffffffffffffffffffffffffffffffffff1681526020019081526020016000208190555050565b6802b5e3af16b188000081565b60026020528060005260406000206000915090505481565b600360009054906101000a900473ffffffffffffffffffffffffffffffffffffffff1681565b60008054906101000a900473ffffffffffffffffffffffffffffffffffffffff1681565b60008054906101000a900473ffffffffffffffffffffffffffffffffffffffff1673ffffffffffffffffffffffffffffffffffffffff163373ffffffffffffffffffffffffffffffffffffffff16146103c2576040517f10e0797900000000000000000000000000000000000000000000000000000000815260040160405180910390fd5b60005b6001805490508110156104945760006001828154811061040e577f4e487b7100000000000000000000000000000000000000000000000000000000600052603260045260246000fd5b9060005260206000200160009054906101000a900473ffffffffffffffffffffffffffffffffffffffff1690506000600260008373ffffffffffffffffffffffffffffffffffffffff1673ffffffffffffffffffffffffffffffffffffffff1681526020019081526020016000208190555050808061048c90610bea565b9150506103c5565b50600067ffffffffffffffff8111156104d6577f4e487b7100000000000000000000000000000000000000000000000000000000600052604160045260246000fd5b6040519080825280602002602001820160405280156105045781602001602082028036833780820191505090505b506001908051906020019061051a9291906106da565b5060003373ffffffffffffffffffffffffffffffffffffffff164760405161054190610926565b60006040518083038185875af1925050503d806000811461057e576040519150601f19603f3d011682016040523d82523d6000602084013e610583565b606091505b50509050806105c7576040517f08c379a00000000000000000000000000000000000000000000000000000000081526004016105be90610971565b60405180910390fd5b50565b600181815481106105da57600080fd5b906000526020600020016000915054906101000a900473ffffffffffffffffffffffffffffffffffffffff1681565b6000670de0b6b3a76400008361061e8461063a565b6106289190610b10565b61063291906109c8565b905092915050565b6000808273ffffffffffffffffffffffffffffffffffffffff1663feaf968c6040518163ffffffff1660e01b815260040160a06040518083038186803b15801561068357600080fd5b505afa158015610697573d6000803e3d6000fd5b505050506040513d601f19601f820116820180604052508101906106bb919061083c565b5050509150506402540be400816106d291906109f9565b915050919050565b828054828255906000526020600020908101928215610753579160200282015b828111156107525782518260006101000a81548173ffffffffffffffffffffffffffffffffffffffff021916908373ffffffffffffffffffffffffffffffffffffffff160217905550916020019190600101906106fa565b5b5090506107609190610764565b5090565b5b8082111561077d576000816000905550600101610765565b5090565b60008135905061079081610cbd565b92915050565b6000815190506107a581610cd4565b92915050565b6000813590506107ba81610ceb565b92915050565b6000815190506107cf81610ceb565b92915050565b6000815190506107e481610d02565b92915050565b6000602082840312156107fc57600080fd5b600061080a84828501610781565b91505092915050565b60006020828403121561082557600080fd5b6000610833848285016107ab565b91505092915050565b600080600080600060a0868803121561085457600080fd5b6000610862888289016107d5565b955050602061087388828901610796565b9450506040610884888289016107c0565b9350506060610895888289016107c0565b92505060806108a6888289016107d5565b9150509295509295909350565b6108bc81610b6a565b82525050565b6108cb81610bc6565b82525050565b60006108de601a836109b7565b91506108e982610c91565b602082019050919050565b60006109016000836109ac565b915061090c82610cba565b600082019050919050565b61092081610ba6565b82525050565b6000610931826108f4565b9150819050919050565b600060208201905061095060008301846108b3565b92915050565b600060208201905061096b60008301846108c2565b92915050565b6000602082019050818103600083015261098a816108d1565b9050919050565b60006020820190506109a66000830184610917565b92915050565b600081905092915050565b600082825260208201905092915050565b60006109d382610ba6565b91506109de83610ba6565b9250826109ee576109ed610c62565b5b828204905092915050565b6000610a0482610b7c565b9150610a0f83610b7c565b9250827f7fffffffffffffffffffffffffffffffffffffffffffffffffffffffffffffff0482116000841360008413161615610a4e57610a4d610c33565b5b817f80000000000000000000000000000000000000000000000000000000000000000583126000841260008413161615610a8b57610a8a610c33565b5b827f80000000000000000000000000000000000000000000000000000000000000000582126000841360008412161615610ac857610ac7610c33565b5b827f7fffffffffffffffffffffffffffffffffffffffffffffffffffffffffffffff0582126000841260008412161615610b0557610b04610c33565b5b828202905092915050565b6000610b1b82610ba6565b9150610b2683610ba6565b9250817fffffffffffffffffffffffffffffffffffffffffffffffffffffffffffffffff0483118215151615610b5f57610b5e610c33565b5b828202905092915050565b6000610b7582610b86565b9050919050565b6000819050919050565b600073ffffffffffffffffffffffffffffffffffffffff82169050919050565b6000819050919050565b600069ffffffffffffffffffff82169050919050565b6000610bd182610bd8565b9050919050565b6000610be382610b86565b9050919050565b6000610bf582610ba6565b91507fffffffffffffffffffffffffffffffffffffffffffffffffffffffffffffffff821415610c2857610c27610c33565b5b600182019050919050565b7f4e487b7100000000000000000000000000000000000000000000000000000000600052601160045260246000fd5b7f4e487b7100000000000000000000000000000000000000000000000000000000600052601260045260246000fd5b7f556e417574686f72697a65642057697468647261776572212121000000000000600082015250565b50565b610cc681610b6a565b8114610cd157600080fd5b50565b610cdd81610b7c565b8114610ce857600080fd5b50565b610cf481610ba6565b8114610cff57600080fd5b50565b610d0b81610bb0565b8114610d1657600080fd5b5056fea2646970667358221220088255fb685dba272453ed105eddc1d112aeae7a6aaece134cf5878a8579aefa64736f6c63430008040033",
  "devdoc": {
    "author": "HealthCare Inc",
    "details": "This implements PriceFeed Library",
    "kind": "dev",
    "methods": {
      "fund_deposit()": {
        "details": "This implements price feed"
      },
      "fund_withdraw()": {
        "details": "will check on it further"
      }
    },
    "title": "Medical Ememrgency Funding Contract",
    "version": 1
  },
  "userdoc": {
    "kind": "user",
    "methods": {
      "constructor": {
        "notice": "constructor receive fallback external public internal private view /pure"
      },
      "fund_deposit()": {
        "notice": "This is the main funding point"
      },
      "fund_withdraw()": {
        "notice": "this contract is for withdrawing assets from the upholded contract "
      }
    },
    "notice": "Solidity Main Contract Transaction Getway",
    "version": 1
  },
  "storageLayout": {
    "storage": [
      {
        "astId": 58,
        "contract": "contracts/FundMe.sol:FundMe",
        "label": "owner_of_this_contract",
        "offset": 0,
        "slot": "0",
        "type": "t_address"
      },
      {
        "astId": 66,
        "contract": "contracts/FundMe.sol:FundMe",
        "label": "funders",
        "offset": 0,
        "slot": "1",
        "type": "t_array(t_address)dyn_storage"
      },
      {
        "astId": 70,
        "contract": "contracts/FundMe.sol:FundMe",
        "label": "funded_amount",
        "offset": 0,
        "slot": "2",
        "type": "t_mapping(t_address,t_uint256)"
      },
      {
        "astId": 73,
        "contract": "contracts/FundMe.sol:FundMe",
        "label": "pricefeed",
        "offset": 0,
        "slot": "3",
        "type": "t_contract(AggregatorV3Interface)45"
      }
    ],
    "types": {
      "t_address": {
        "encoding": "inplace",
        "label": "address",
        "numberOfBytes": "20"
      },
      "t_array(t_address)dyn_storage": {
        "base": "t_address",
        "encoding": "dynamic_array",
        "label": "address[]",
        "numberOfBytes": "32"
      },
      "t_contract(AggregatorV3Interface)45": {
        "encoding": "inplace",
        "label": "contract AggregatorV3Interface",
        "numberOfBytes": "20"
      },
      "t_mapping(t_address,t_uint256)": {
        "encoding": "mapping",
        "key": "t_address",
        "label": "mapping(address => uint256)",
        "numberOfBytes": "32",
        "value": "t_uint256"
      },
      "t_uint256": {
        "encoding": "inplace",
        "label": "uint256",
        "numberOfBytes": "32"
      }
    }
  }
}