{
  "address": "0xe7f1725E7734CE288F8367e1Bb143E90bb3F0512",
  "abi": [
    {
      "inputs": [
        {
          "internalType": "address",
          "name": "pricefeed_address",
          "type": "address"
        }
      ],
      "stateMutability": "nonpayable",
      "type": "constructor"
    },
    {
      "inputs": [],
      "name": "FundMe__InsufficientFund",
      "type": "error"
    },
    {
      "inputs": [],
      "name": "FundMe__NotOwner",
      "type": "error"
    },
    {
      "inputs": [],
      "name": "MIN_USD",
      "outputs": [
        {
          "internalType": "uint256",
          "name": "",
          "type": "uint256"
        }
      ],
      "stateMutability": "view",
      "type": "function"
    },
    {
      "inputs": [],
      "name": "fund_deposit",
      "outputs": [],
      "stateMutability": "payable",
      "type": "function"
    },
    {
      "inputs": [],
      "name": "fund_withdraw",
      "outputs": [],
      "stateMutability": "nonpayable",
      "type": "function"
    },
    {
      "inputs": [
        {
          "internalType": "address",
          "name": "funder",
          "type": "address"
        }
      ],
      "name": "get_AmountFunded",
      "outputs": [
        {
          "internalType": "uint256",
          "name": "",
          "type": "uint256"
        }
      ],
      "stateMutability": "view",
      "type": "function"
    },
    {
      "inputs": [
        {
          "internalType": "uint256",
          "name": "index",
          "type": "uint256"
        }
      ],
      "name": "get_Funder",
      "outputs": [
        {
          "internalType": "address",
          "name": "",
          "type": "address"
        }
      ],
      "stateMutability": "view",
      "type": "function"
    },
    {
      "inputs": [],
      "name": "get_Owner",
      "outputs": [
        {
          "internalType": "address",
          "name": "",
          "type": "address"
        }
      ],
      "stateMutability": "view",
      "type": "function"
    },
    {
      "inputs": [],
      "name": "get_PriceFeed",
      "outputs": [
        {
          "internalType": "contract AggregatorV3Interface",
          "name": "",
          "type": "address"
        }
      ],
      "stateMutability": "view",
      "type": "function"
    }
  ],
  "transactionHash": "0xceb42198256524f1864f46bae851a15d3d12f1beb2db9f6420502598cce781c6",
  "args": [
    "0x5FbDB2315678afecb367f032d93F642f64180aa3"
  ],
  "numDeployments": 1,
  "solcInputHash": "85877a713d21a60c1996000f2376d8f8",
  "bytecode": "0x60a060405234801561001057600080fd5b50604051610f16380380610f16833981810160405281019061003291906100c5565b3373ffffffffffffffffffffffffffffffffffffffff1660808173ffffffffffffffffffffffffffffffffffffffff1660601b8152505080600260006101000a81548173ffffffffffffffffffffffffffffffffffffffff021916908373ffffffffffffffffffffffffffffffffffffffff16021790555050610137565b6000815190506100bf81610120565b92915050565b6000602082840312156100d757600080fd5b60006100e5848285016100b0565b91505092915050565b60006100f982610100565b9050919050565b600073ffffffffffffffffffffffffffffffffffffffff82169050919050565b610129816100ee565b811461013457600080fd5b50565b60805160601c610dba61015c6000396000818161038a01526103da0152610dba6000f3fe6080604052600436106100705760003560e01c8063436cd2271161004e578063436cd2271461011a57806350c45a511461012457806396869b741461014f578063d92ffcbe1461017a57610070565b8063213dbea2146100755780633d15040e146100a0578063409503cf146100dd575b600080fd5b34801561008157600080fd5b5061008a610191565b60405161009791906109e0565b60405180910390f35b3480156100ac57600080fd5b506100c760048036038101906100c291906108a5565b61019e565b6040516100d491906109aa565b60405180910390f35b3480156100e957600080fd5b5061010460048036038101906100ff919061087c565b61020b565b60405161011191906109e0565b60405180910390f35b610122610254565b005b34801561013057600080fd5b50610139610386565b60405161014691906109aa565b60405180910390f35b34801561015b57600080fd5b506101646103ae565b60405161017191906109c5565b60405180910390f35b34801561018657600080fd5b5061018f6103d8565b005b6802b5e3af16b188000081565b60008082815481106101d9577f4e487b7100000000000000000000000000000000000000000000000000000000600052603260045260246000fd5b9060005260206000200160009054906101000a900473ffffffffffffffffffffffffffffffffffffffff169050919050565b6000600160008373ffffffffffffffffffffffffffffffffffffffff1673ffffffffffffffffffffffffffffffffffffffff168152602001908152602001600020549050919050565b6802b5e3af16b1880000610293600260009054906101000a900473ffffffffffffffffffffffffffffffffffffffff163461069b90919063ffffffff16565b10156102cb576040517fd1b3608400000000000000000000000000000000000000000000000000000000815260040160405180910390fd5b34600160003373ffffffffffffffffffffffffffffffffffffffff1673ffffffffffffffffffffffffffffffffffffffff168152602001908152602001600020600082825461031a9190610a06565b925050819055506000339080600181540180825580915050600190039060005260206000200160009091909190916101000a81548173ffffffffffffffffffffffffffffffffffffffff021916908373ffffffffffffffffffffffffffffffffffffffff160217905550565b60007f0000000000000000000000000000000000000000000000000000000000000000905090565b6000600260009054906101000a900473ffffffffffffffffffffffffffffffffffffffff16905090565b7f000000000000000000000000000000000000000000000000000000000000000073ffffffffffffffffffffffffffffffffffffffff163373ffffffffffffffffffffffffffffffffffffffff161461045d576040517f579610db00000000000000000000000000000000000000000000000000000000815260040160405180910390fd5b6000808054905090506000808054806020026020016040519081016040528092919081815260200182805480156104e957602002820191906000526020600020905b8160009054906101000a900473ffffffffffffffffffffffffffffffffffffffff1673ffffffffffffffffffffffffffffffffffffffff168152602001906001019080831161049f575b5050505050905060005b82811015610599576000828281518110610536577f4e487b7100000000000000000000000000000000000000000000000000000000600052603260045260246000fd5b602002602001015190506000600160008373ffffffffffffffffffffffffffffffffffffffff1673ffffffffffffffffffffffffffffffffffffffff1681526020019081526020016000208190555050808061059190610c7e565b9150506104f3565b50600067ffffffffffffffff8111156105db577f4e487b7100000000000000000000000000000000000000000000000000000000600052604160045260246000fd5b6040519080825280602002602001820160405280156106095781602001602082028036833780820191505090505b506000908051906020019061061f92919061076c565b5060003373ffffffffffffffffffffffffffffffffffffffff164760405161064690610995565b60006040518083038185875af1925050503d8060008114610683576040519150601f19603f3d011682016040523d82523d6000602084013e610688565b606091505b505090508061069657600080fd5b505050565b6000670de0b6b3a7640000836106b0846106cc565b6106ba9190610ba4565b6106c49190610a5c565b905092915050565b6000808273ffffffffffffffffffffffffffffffffffffffff1663feaf968c6040518163ffffffff1660e01b815260040160a06040518083038186803b15801561071557600080fd5b505afa158015610729573d6000803e3d6000fd5b505050506040513d601f19601f8201168201806040525081019061074d91906108ce565b5050509150506402540be400816107649190610a8d565b915050919050565b8280548282559060005260206000209081019282156107e5579160200282015b828111156107e45782518260006101000a81548173ffffffffffffffffffffffffffffffffffffffff021916908373ffffffffffffffffffffffffffffffffffffffff1602179055509160200191906001019061078c565b5b5090506107f291906107f6565b5090565b5b8082111561080f5760008160009055506001016107f7565b5090565b60008135905061082281610d28565b92915050565b60008151905061083781610d3f565b92915050565b60008135905061084c81610d56565b92915050565b60008151905061086181610d56565b92915050565b60008151905061087681610d6d565b92915050565b60006020828403121561088e57600080fd5b600061089c84828501610813565b91505092915050565b6000602082840312156108b757600080fd5b60006108c58482850161083d565b91505092915050565b600080600080600060a086880312156108e657600080fd5b60006108f488828901610867565b955050602061090588828901610828565b945050604061091688828901610852565b935050606061092788828901610852565b925050608061093888828901610867565b9150509295509295909350565b61094e81610bfe565b82525050565b61095d81610c5a565b82525050565b60006109706000836109fb565b915061097b82610d25565b600082019050919050565b61098f81610c3a565b82525050565b60006109a082610963565b9150819050919050565b60006020820190506109bf6000830184610945565b92915050565b60006020820190506109da6000830184610954565b92915050565b60006020820190506109f56000830184610986565b92915050565b600081905092915050565b6000610a1182610c3a565b9150610a1c83610c3a565b9250827fffffffffffffffffffffffffffffffffffffffffffffffffffffffffffffffff03821115610a5157610a50610cc7565b5b828201905092915050565b6000610a6782610c3a565b9150610a7283610c3a565b925082610a8257610a81610cf6565b5b828204905092915050565b6000610a9882610c10565b9150610aa383610c10565b9250827f7fffffffffffffffffffffffffffffffffffffffffffffffffffffffffffffff0482116000841360008413161615610ae257610ae1610cc7565b5b817f80000000000000000000000000000000000000000000000000000000000000000583126000841260008413161615610b1f57610b1e610cc7565b5b827f80000000000000000000000000000000000000000000000000000000000000000582126000841360008412161615610b5c57610b5b610cc7565b5b827f7fffffffffffffffffffffffffffffffffffffffffffffffffffffffffffffff0582126000841260008412161615610b9957610b98610cc7565b5b828202905092915050565b6000610baf82610c3a565b9150610bba83610c3a565b9250817fffffffffffffffffffffffffffffffffffffffffffffffffffffffffffffffff0483118215151615610bf357610bf2610cc7565b5b828202905092915050565b6000610c0982610c1a565b9050919050565b6000819050919050565b600073ffffffffffffffffffffffffffffffffffffffff82169050919050565b6000819050919050565b600069ffffffffffffffffffff82169050919050565b6000610c6582610c6c565b9050919050565b6000610c7782610c1a565b9050919050565b6000610c8982610c3a565b91507fffffffffffffffffffffffffffffffffffffffffffffffffffffffffffffffff821415610cbc57610cbb610cc7565b5b600182019050919050565b7f4e487b7100000000000000000000000000000000000000000000000000000000600052601160045260246000fd5b7f4e487b7100000000000000000000000000000000000000000000000000000000600052601260045260246000fd5b50565b610d3181610bfe565b8114610d3c57600080fd5b50565b610d4881610c10565b8114610d5357600080fd5b50565b610d5f81610c3a565b8114610d6a57600080fd5b50565b610d7681610c44565b8114610d8157600080fd5b5056fea264697066735822122069f920d13cb2d8245a9b96e006d893f3c3a826baff70d93eb4d393e93061c7ac64736f6c63430008040033",
  "devdoc": {
    "author": "HealthCare Inc",
    "details": "This implements PriceFeed Library",
    "kind": "dev",
    "methods": {
      "fund_deposit()": {
        "details": "This implements price feed"
      },
      "fund_withdraw()": {
        "details": "will check on it further"
      }
    },
    "title": "Medical Ememrgency Funding Contract",
    "version": 1
  },
  "userdoc": {
    "kind": "user",
    "methods": {
      "constructor": {
        "notice": "constructor receive fallback external public internal private view /pure"
      },
      "fund_deposit()": {
        "notice": "This is the main funding point"
      },
      "fund_withdraw()": {
        "notice": "this contract is for withdrawing assets from the upholded contract "
      },
      "get_Owner()": {
        "notice": "function for accesing private state variables"
      }
    },
    "notice": "Solidity Main Contract Transaction Getway",
    "version": 1
  },
  "storageLayout": {
    "storage": [
      {
        "astId": 67,
        "contract": "contracts/FundMe.sol:FundMe",
        "label": "S_funders",
        "offset": 0,
        "slot": "0",
        "type": "t_array(t_address)dyn_storage"
      },
      {
        "astId": 71,
        "contract": "contracts/FundMe.sol:FundMe",
        "label": "S_addressToAmountFunded",
        "offset": 0,
        "slot": "1",
        "type": "t_mapping(t_address,t_uint256)"
      },
      {
        "astId": 74,
        "contract": "contracts/FundMe.sol:FundMe",
        "label": "S_pricefeed",
        "offset": 0,
        "slot": "2",
        "type": "t_contract(AggregatorV3Interface)45"
      }
    ],
    "types": {
      "t_address": {
        "encoding": "inplace",
        "label": "address",
        "numberOfBytes": "20"
      },
      "t_array(t_address)dyn_storage": {
        "base": "t_address",
        "encoding": "dynamic_array",
        "label": "address[]",
        "numberOfBytes": "32"
      },
      "t_contract(AggregatorV3Interface)45": {
        "encoding": "inplace",
        "label": "contract AggregatorV3Interface",
        "numberOfBytes": "20"
      },
      "t_mapping(t_address,t_uint256)": {
        "encoding": "mapping",
        "key": "t_address",
        "label": "mapping(address => uint256)",
        "numberOfBytes": "32",
        "value": "t_uint256"
      },
      "t_uint256": {
        "encoding": "inplace",
        "label": "uint256",
        "numberOfBytes": "32"
      }
    }
  }
}