{
  "address": "0xC440755195F07135c648721b4dB39C1a69D11B84",
  "abi": [
    {
      "inputs": [
        {
          "internalType": "address",
          "name": "pricefeed_address",
          "type": "address"
        }
      ],
      "stateMutability": "nonpayable",
      "type": "constructor"
    },
    {
      "inputs": [],
      "name": "FundMe_NotOwner",
      "type": "error"
    },
    {
      "stateMutability": "payable",
      "type": "fallback"
    },
    {
      "inputs": [],
      "name": "MIN_USD",
      "outputs": [
        {
          "internalType": "uint256",
          "name": "",
          "type": "uint256"
        }
      ],
      "stateMutability": "view",
      "type": "function"
    },
    {
      "inputs": [
        {
          "internalType": "address",
          "name": "",
          "type": "address"
        }
      ],
      "name": "addressToAmountFunded",
      "outputs": [
        {
          "internalType": "uint256",
          "name": "",
          "type": "uint256"
        }
      ],
      "stateMutability": "view",
      "type": "function"
    },
    {
      "inputs": [],
      "name": "fund_deposit",
      "outputs": [],
      "stateMutability": "payable",
      "type": "function"
    },
    {
      "inputs": [],
      "name": "fund_withdraw",
      "outputs": [],
      "stateMutability": "nonpayable",
      "type": "function"
    },
    {
      "inputs": [
        {
          "internalType": "uint256",
          "name": "",
          "type": "uint256"
        }
      ],
      "name": "funders",
      "outputs": [
        {
          "internalType": "address",
          "name": "",
          "type": "address"
        }
      ],
      "stateMutability": "view",
      "type": "function"
    },
    {
      "inputs": [],
      "name": "owner_of_this_contract",
      "outputs": [
        {
          "internalType": "address",
          "name": "",
          "type": "address"
        }
      ],
      "stateMutability": "view",
      "type": "function"
    },
    {
      "inputs": [],
      "name": "pricefeed",
      "outputs": [
        {
          "internalType": "contract AggregatorV3Interface",
          "name": "",
          "type": "address"
        }
      ],
      "stateMutability": "view",
      "type": "function"
    },
    {
      "stateMutability": "payable",
      "type": "receive"
    }
  ],
  "transactionHash": "0x8da5330a06ec5996798183b0f468b3cffe46a3e03f97a04b7f612a5b8c7d79ca",
  "args": [
    "0xD4a33860578De61DBAbDc8BFdb98FD742fA7028e"
  ],
  "numDeployments": 5,
  "solcInputHash": "9936d7bd490fd79a95537e17d1705388",
  "bytecode": "0x608060405234801561001057600080fd5b506040516200126538038062001265833981810160405281019061003491906100d0565b336000806101000a81548173ffffffffffffffffffffffffffffffffffffffff021916908373ffffffffffffffffffffffffffffffffffffffff16021790555080600360006101000a81548173ffffffffffffffffffffffffffffffffffffffff021916908373ffffffffffffffffffffffffffffffffffffffff16021790555050610142565b6000815190506100ca8161012b565b92915050565b6000602082840312156100e257600080fd5b60006100f0848285016100bb565b91505092915050565b60006101048261010b565b9050919050565b600073ffffffffffffffffffffffffffffffffffffffff82169050919050565b610134816100f9565b811461013f57600080fd5b50565b61111380620001526000396000f3fe6080604052600436106100745760003560e01c8063590f21131161004e578063590f2113146100ff578063ac5b4f671461012a578063d92ffcbe14610155578063dc0d3dff1461016c57610083565b8063213dbea21461008d5780633e47d6f3146100b8578063436cd227146100f557610083565b36610083576100816101a9565b005b61008b6101a9565b005b34801561009957600080fd5b506100a2610328565b6040516100af9190610c4c565b60405180910390f35b3480156100c457600080fd5b506100df60048036038101906100da9190610a07565b610335565b6040516100ec9190610c4c565b60405180910390f35b6100fd6101a9565b005b34801561010b57600080fd5b5061011461034d565b6040516101219190610bcf565b60405180910390f35b34801561013657600080fd5b5061013f610373565b60405161014c9190610bb4565b60405180910390f35b34801561016157600080fd5b5061016a610397565b005b34801561017857600080fd5b50610193600480360381019061018e9190610a30565b610662565b6040516101a09190610bb4565b60405180910390f35b6802b5e3af16b18800006101e8600360009054906101000a900473ffffffffffffffffffffffffffffffffffffffff16346106a190919063ffffffff16565b1015610229576040517f08c379a000000000000000000000000000000000000000000000000000000000815260040161022090610c2c565b60405180910390fd5b60003390506001819080600181540180825580915050600190039060005260206000200160009091909190916101000a81548173ffffffffffffffffffffffffffffffffffffffff021916908373ffffffffffffffffffffffffffffffffffffffff16021790555034600260008373ffffffffffffffffffffffffffffffffffffffff1673ffffffffffffffffffffffffffffffffffffffff16815260200190815260200160002060008282546102e09190610c8e565b925050819055506103256040518060400160405280601981526020017f23232323232323232028202a2a2a2a20292023232323232323000000000000008152506106d2565b50565b6802b5e3af16b188000081565b60026020528060005260406000206000915090505481565b600360009054906101000a900473ffffffffffffffffffffffffffffffffffffffff1681565b60008054906101000a900473ffffffffffffffffffffffffffffffffffffffff1681565b60008054906101000a900473ffffffffffffffffffffffffffffffffffffffff1673ffffffffffffffffffffffffffffffffffffffff163373ffffffffffffffffffffffffffffffffffffffff161461041c576040517f10e0797900000000000000000000000000000000000000000000000000000000815260040160405180910390fd5b60005b6001805490508110156104ee57600060018281548110610468577f4e487b7100000000000000000000000000000000000000000000000000000000600052603260045260246000fd5b9060005260206000200160009054906101000a900473ffffffffffffffffffffffffffffffffffffffff1690506000600260008373ffffffffffffffffffffffffffffffffffffffff1673ffffffffffffffffffffffffffffffffffffffff168152602001908152602001600020819055505080806104e690610f39565b91505061041f565b50600067ffffffffffffffff811115610530577f4e487b7100000000000000000000000000000000000000000000000000000000600052604160045260246000fd5b60405190808252806020026020018201604052801561055e5781602001602082028036833780820191505090505b50600190805190602001906105749291906108f7565b5060003373ffffffffffffffffffffffffffffffffffffffff164760405161059b90610b9f565b60006040518083038185875af1925050503d80600081146105d8576040519150601f19603f3d011682016040523d82523d6000602084013e6105dd565b606091505b5050905080610621576040517f08c379a000000000000000000000000000000000000000000000000000000000815260040161061890610c0c565b60405180910390fd5b61065f6040518060400160405280601581526020017f2323232323232028202a2a2a20292023232323232300000000000000000000008152506106d2565b50565b6001818154811061067257600080fd5b906000526020600020016000915054906101000a900473ffffffffffffffffffffffffffffffffffffffff1681565b6000670de0b6b3a7640000836106b68461076b565b6106c09190610e2c565b6106ca9190610ce4565b905092915050565b610768816040516024016106e69190610bea565b6040516020818303038152906040527f41304fac000000000000000000000000000000000000000000000000000000007bffffffffffffffffffffffffffffffffffffffffffffffffffffffff19166020820180517bffffffffffffffffffffffffffffffffffffffffffffffffffffffff8381831617835250505050610835565b50565b6000808273ffffffffffffffffffffffffffffffffffffffff1663feaf968c6040518163ffffffff1660e01b815260040160a06040518083038186803b1580156107b457600080fd5b505afa1580156107c8573d6000803e3d6000fd5b505050506040513d601f19601f820116820180604052508101906107ec9190610a59565b5050509150506108136040518060600160405280603b81526020016110a3603b91396106d2565b61081c8161085e565b6402540be4008161082d9190610d15565b915050919050565b60008151905060006a636f6e736f6c652e6c6f679050602083016000808483855afa5050505050565b6108f4816040516024016108729190610c4c565b6040516020818303038152906040527ff82c50f1000000000000000000000000000000000000000000000000000000007bffffffffffffffffffffffffffffffffffffffffffffffffffffffff19166020820180517bffffffffffffffffffffffffffffffffffffffffffffffffffffffff8381831617835250505050610835565b50565b828054828255906000526020600020908101928215610970579160200282015b8281111561096f5782518260006101000a81548173ffffffffffffffffffffffffffffffffffffffff021916908373ffffffffffffffffffffffffffffffffffffffff16021790555091602001919060010190610917565b5b50905061097d9190610981565b5090565b5b8082111561099a576000816000905550600101610982565b5090565b6000813590506109ad81611046565b92915050565b6000815190506109c28161105d565b92915050565b6000813590506109d781611074565b92915050565b6000815190506109ec81611074565b92915050565b600081519050610a018161108b565b92915050565b600060208284031215610a1957600080fd5b6000610a278482850161099e565b91505092915050565b600060208284031215610a4257600080fd5b6000610a50848285016109c8565b91505092915050565b600080600080600060a08688031215610a7157600080fd5b6000610a7f888289016109f2565b9550506020610a90888289016109b3565b9450506040610aa1888289016109dd565b9350506060610ab2888289016109dd565b9250506080610ac3888289016109f2565b9150509295509295909350565b610ad981610e86565b82525050565b610ae881610ee2565b82525050565b6000610af982610c67565b610b038185610c7d565b9350610b13818560208601610f06565b610b1c81610fe0565b840191505092915050565b6000610b34601a83610c7d565b9150610b3f82610ff1565b602082019050919050565b6000610b57601d83610c7d565b9150610b628261101a565b602082019050919050565b6000610b7a600083610c72565b9150610b8582611043565b600082019050919050565b610b9981610ec2565b82525050565b6000610baa82610b6d565b9150819050919050565b6000602082019050610bc96000830184610ad0565b92915050565b6000602082019050610be46000830184610adf565b92915050565b60006020820190508181036000830152610c048184610aee565b905092915050565b60006020820190508181036000830152610c2581610b27565b9050919050565b60006020820190508181036000830152610c4581610b4a565b9050919050565b6000602082019050610c616000830184610b90565b92915050565b600081519050919050565b600081905092915050565b600082825260208201905092915050565b6000610c9982610ec2565b9150610ca483610ec2565b9250827fffffffffffffffffffffffffffffffffffffffffffffffffffffffffffffffff03821115610cd957610cd8610f82565b5b828201905092915050565b6000610cef82610ec2565b9150610cfa83610ec2565b925082610d0a57610d09610fb1565b5b828204905092915050565b6000610d2082610e98565b9150610d2b83610e98565b9250827f7fffffffffffffffffffffffffffffffffffffffffffffffffffffffffffffff0482116000841360008413161615610d6a57610d69610f82565b5b817f80000000000000000000000000000000000000000000000000000000000000000583126000841260008413161615610da757610da6610f82565b5b827f80000000000000000000000000000000000000000000000000000000000000000582126000841360008412161615610de457610de3610f82565b5b827f7fffffffffffffffffffffffffffffffffffffffffffffffffffffffffffffff0582126000841260008412161615610e2157610e20610f82565b5b828202905092915050565b6000610e3782610ec2565b9150610e4283610ec2565b9250817fffffffffffffffffffffffffffffffffffffffffffffffffffffffffffffffff0483118215151615610e7b57610e7a610f82565b5b828202905092915050565b6000610e9182610ea2565b9050919050565b6000819050919050565b600073ffffffffffffffffffffffffffffffffffffffff82169050919050565b6000819050919050565b600069ffffffffffffffffffff82169050919050565b6000610eed82610ef4565b9050919050565b6000610eff82610ea2565b9050919050565b60005b83811015610f24578082015181840152602081019050610f09565b83811115610f33576000848401525b50505050565b6000610f4482610ec2565b91507fffffffffffffffffffffffffffffffffffffffffffffffffffffffffffffffff821415610f7757610f76610f82565b5b600182019050919050565b7f4e487b7100000000000000000000000000000000000000000000000000000000600052601160045260246000fd5b7f4e487b7100000000000000000000000000000000000000000000000000000000600052601260045260246000fd5b6000601f19601f8301169050919050565b7f556e417574686f72697a65642057697468647261776572212121000000000000600082015250565b7f496e73756666696369656e742046756e64696e672050726f7669646564000000600082015250565b50565b61104f81610e86565b811461105a57600080fd5b50565b61106681610e98565b811461107157600080fd5b50565b61107d81610ec2565b811461108857600080fd5b50565b61109481610ecc565b811461109f57600080fd5b5056fe4c6174657374205072696365204665656420666f72204554482f555344204f6e20476f65726c69204e6574776f726b204e6f646573206973203a20a26469706673582212209003920940946510f18f5cd4f3d8e503cb401336f2541a18fab3dce99223f6b564736f6c63430008040033",
  "devdoc": {
    "author": "HealthCare Inc",
    "details": "This implements PriceFeed Library",
    "kind": "dev",
    "methods": {
      "fund_deposit()": {
        "details": "This implements price feed"
      },
      "fund_withdraw()": {
        "details": "will check on it further"
      }
    },
    "title": "Medical Ememrgency Funding Contract",
    "version": 1
  },
  "userdoc": {
    "kind": "user",
    "methods": {
      "constructor": {
        "notice": "constructor receive fallback external public internal private view /pure"
      },
      "fund_deposit()": {
        "notice": "This is the main funding point"
      },
      "fund_withdraw()": {
        "notice": "this contract is for withdrawing assets from the upholded contract "
      }
    },
    "notice": "Solidity Main Contract Transaction Getway",
    "version": 1
  },
  "storageLayout": {
    "storage": [
      {
        "astId": 59,
        "contract": "contracts/FundMe.sol:FundMe",
        "label": "owner_of_this_contract",
        "offset": 0,
        "slot": "0",
        "type": "t_address"
      },
      {
        "astId": 69,
        "contract": "contracts/FundMe.sol:FundMe",
        "label": "funders",
        "offset": 0,
        "slot": "1",
        "type": "t_array(t_address)dyn_storage"
      },
      {
        "astId": 73,
        "contract": "contracts/FundMe.sol:FundMe",
        "label": "addressToAmountFunded",
        "offset": 0,
        "slot": "2",
        "type": "t_mapping(t_address,t_uint256)"
      },
      {
        "astId": 76,
        "contract": "contracts/FundMe.sol:FundMe",
        "label": "pricefeed",
        "offset": 0,
        "slot": "3",
        "type": "t_contract(AggregatorV3Interface)45"
      }
    ],
    "types": {
      "t_address": {
        "encoding": "inplace",
        "label": "address",
        "numberOfBytes": "20"
      },
      "t_array(t_address)dyn_storage": {
        "base": "t_address",
        "encoding": "dynamic_array",
        "label": "address[]",
        "numberOfBytes": "32"
      },
      "t_contract(AggregatorV3Interface)45": {
        "encoding": "inplace",
        "label": "contract AggregatorV3Interface",
        "numberOfBytes": "20"
      },
      "t_mapping(t_address,t_uint256)": {
        "encoding": "mapping",
        "key": "t_address",
        "label": "mapping(address => uint256)",
        "numberOfBytes": "32",
        "value": "t_uint256"
      },
      "t_uint256": {
        "encoding": "inplace",
        "label": "uint256",
        "numberOfBytes": "32"
      }
    }
  }
}